GRILNK	GRI-909 LINK EDITOR	MACRO 47(113) 16:15  8-MAR-73 PAGE 1
LA	MAC	 4-OCT-72 12:19		PARAMETER DEFINITIONS

					;MIMIC LINKING LOADER PARAMETERS
					;
					IFNDEF ADR,<ADR==	0>;UTIL CONDITIONAL DEFAULTS
					IFNDEF FDATA,<FDATA==	0>
					IFNDEF ONLINE,<ONLINE==	0>
					IFNDEF DTALIN,<DTALIN==	0>
					IFNDEF DIGITL,<DIGITL==	0>
					IFNDEF TIMLTD,<TIMLTD==	0>
					IFNDEF ISC,<ISC==	0>
					IFNDEF TYMSHR,<TYMSHR== 0>
					;
					;UNIVERSAL FLAGS (LEFT HALF OF AC-0):

			400000			QOBFIL=400000	;OUTPUT BINARY FILE SPECIFIED
			200000			QSYM=200000	;INPUT SYMBOL FILE SPECIFIED
			100000			QSMO=100000	;OUTPUT SYMBOL FILE SPECIFIED
			040000			QSMRQ=040000	;SYMBOL OUTPUT REQUEST
			020000			QMAP=020000	;LOAD MAP REQUEST
			010000			QLOCAL=010000	;LOCAL SYMBOLS REQUEST

			000010			QCCL=000010	;CCL FILE REQUEST
			000004			QCCLC=000004	;TMPCOR FILE REQUEST
			000002			QEOF=000002	;END OF FILE ON CCL DEVICE
			000001			QCCLU=000001	;USER SUPPLIED CCL FILE

					;UNIVERSAL SYMBOL BLOCK FORMAT:

			000000			SYMN=0	;WORD 0: NAME, SIXBIT
			000001			SYMV=1	;WORD 1: VALUE
			000002			SYMF=2	;WORD 2: FLAGS

					;STANDARD SYMBOL TABLE FLAGS.

			400000			QINS=400000	;INSTRUCTION
			200000			QDIR=200000	;DIRECTIVE
			100000			QLIT=100000	;LITERAL
			040000			QEXT=040000	;EXTERN
			020000			QENT=020000	;ENTRY
			010000			QINT=010000	;INTERN
			002000			QEQV=002000	;EQUIVALENCE
			001000			QREL=001000	;RELOCATABLE
			000200			QUNV=000200	;UNVALUED
			000100			QLBL=000100	;LABEL
			000002			QTITLE=000002	;TITLE
			000001			QMAC=000001	;MACRO


GRILNK	GRI-909 LINK EDITOR	MACRO 47(113) 16:15  8-MAR-73 PAGE 1
GLA	MAC	 7-NOV-72 17:51		PARAMETER DEFINITIONS

						TITLE GRILNK	GRI-909 LINK EDITOR
						SUBTTL PARAMETER DEFINITIONS
	400000'					TWOSEG
	400000'					RELOC 400000

						ENTRY $INITU,$LOADR,$ELOAD
						INTERN $EMASK,$DFINF
						INTERN $ORIGN,$RELOC,$USRSW
						INTERN $DFBIN,$BITS,$RADIX
						EXTERN $STSYM,$RDWRD,$WRWRD,$PURGE,$GTWRD,$PTWRD
						EXTERN $PRFIL,$PRSYM,$PRVAL
						EXTERN $LKSYM,$LKGLBL
						EXTERN $HI,$LO

					;ACCUMULATORS:

			000000			F=0	;FLAGS
			000017			P=17	;PUSHDOWN
			000013			ARG=13	;ARGUMENT REG
			000013			A==ARG
			000014			T=14	;TEMPORARY
			000015			T1=15

			000001			AC=1
			000002			AC1=2	;TEMPORARIES
			000003			AC2=3
			000004			AC3=4
			000005			NAME=5
			000006			VALUE=6
			000007			FLGS=7
			000010			CSUM=10
			000011			CNT=11
			000012			ACX=12
			000003			ENT==AC2
			000004			EXT==AC3

					;GRI-909 LOADER FLAGS (BITS 15-11 OF SECOND WORD OF SYMBOL NAME)

			100000			GRIENT=100000	;?ENTRY
			040000			GRIREL=040000	;?RELOCATE DEFN
			020000			GRIPLS=020000	;?+ EXTERN REF
			010000			GRIMIN=010000	;?- EXTERN REF

			000005			MAXCOD=5	;MAXIMUM BLOCK CODE

		265600	400047'			RELOCT=JSP T,RELSUB

			000002			RELOC==AC1
			000200			DFTORG=200	;DEFAULT ORIGIN

						DEFINE CPY(B,C)
					<	MOVE T,B
						MOVEM T,C>
GRILNK	GRI-909 LINK EDITOR	MACRO 47(113) 16:15  8-MAR-73 PAGE 1-1
GLA	MAC	 7-NOV-72 17:51		PARAMETER DEFINITIONS

			000003			SYMLNT=3	;LOADER SYMBOL LENGTH.
GRILNK	GRI-909 LINK EDITOR	MACRO 47(113) 16:15  8-MAR-73 PAGE 2
GLA	MAC	 7-NOV-72 17:51		PARAMETER DEFINITIONS

					;GRI-909 RELOCATING LOADER, PAGE 2
					;MAIN LOADER ROUTINES.
						SUBTTL MAIN ROUTINES

					;$INITU--	INITIALIZE RELOCATION CONSTANT
					;$LOADR--	LOAD A FILE
					;$ELOAD--	PUNCH CORE IMAGE

	400000'	200 01 0 00 000000*	LVLOAD:	MOVE AC,$HI	;AT END OF LOAD, SET NEW RELOCATION CONSTANT
	400001'	271 01 0 00 000001		ADDI AC,1	;TO HIGHEST LOADED WORD+1.
	400002'	354 00 0 17 000000		AOSA ,(P)	;SET UP SKIP RETURN OUT OF LOADER.
	400003'	201 01 0 00 000200	$INITU:	MOVEI AC,DFTORG	;CONSTANT.
	400004'	202 01 0 00 000005'		MOVEM AC,$RELOC
	400005'	263 17 0 00 000000		POPJ P,

	400006'	405 10 0 00 177777	LOADRC:	ANDI CSUM,177777	;AT THE END OF A BLOCK, CHECK
	400007'	326 10 0 00 400324'		JUMPN CSUM,CSUMER	;FOR CHECKSUM ERROR.
	400010'	260 17 0 00 000000*	$LOADR:	PUSHJ P,$RDWRD	;START OF BLOCK... GET A BYTE.
	400011'	254 00 0 00 400000'		JRST LVLOAD	;ON EOF, EXIT.
	400012'	303 13 0 00 000005		CAILE A,MAXCOD	;IS BLOCK CODE LEGAL?
	400013'	254 00 0 00 400342'		JRST BADBLK	;NO, BAD BLOCK FORMAT.
	400014'	254 00 0 13 400015'		JRST CODES(A)	;YES, BRANCH ON BLOCK TYPE.
	400015'	254 00 0 00 400010'	CODES:	JRST $LOADR	;0= FILLER, IGNORE
	400016'	254 00 0 00 400201'		JRST ABSBLK	;1= ABSOLUTE BLOCK
	400017'	254 00 0 00 400000'		JRST LVLOAD	;2= END OF TAPE
	400020'	254 00 0 00 400023'		JRST RELBLK	;3= REL. BLOCK
	400021'	254 00 0 00 400056'		JRST DICTN	;4= ENTRY DICTIONARY
	400022'	254 00 0 00 400056'		JRST DICTN	;5= EXTERN DICTIONARY

	400023'	260 17 0 00 400171'	RELBLK:	PUSHJ P,GETRHD	;REL. BLOCK.  GET BLOCK HEADER.
	400024'	254 00 0 00 400342'		JRST BADBLK	;DIE ON EOF.
	400025'	260 17 0 00 400154'		PUSHJ P,GET3	;GET 3 WORD ADDRESS HEADER
	400026'	254 00 0 00 400342'		JRST BADBLK
	400027'	265600	400047'			RELOCT	;AND RELOCATE.
	400030'	202 13 0 00 000004'		MOVEM A,$ORIGN	;SAVE AS NEW ORIGIN.
	400031'	313 13 0 00 400000*		CAMLE A,$HI	;IF NEW ORIGIN IS GREATER THAN HIGHEST
	400032'	202 13 0 00 400031*		MOVEM A,$HI	;LOADED WORD, SAVE IT AS HIGHEST.
	400033'	254 00 0 00 400042'		JRST CHKCNT	;GO DECREMENT BLOCK COUNT.

	400034'	260 17 0 00 400154'	RELBLP:	PUSHJ P,GET3	;DATA LOOP... GET NEXT DATA WORD.
	400035'	254 00 0 00 400342'		JRST BADBLK
	400036'	265600	400047'			RELOCT	;RELOCATE IT.
	400037'	260 17 0 00 000000*		PUSHJ P,$PTWRD	;PUT WORD IN SIMULATED CORE.
	400040'	254 00 0 00 400333'		JRST BADORG	;ON ERROR, DIE
	400041'	350 00 0 00 000004'		AOS ,$ORIGN	;ADVANCE ORIGIN.
	400042'	367 11 0 00 400034'	CHKCNT:	SOJG CNT,RELBLP	;DECREMENT BLOCK COUNT, LOOP BACK IF NOT DONE.
	400043'	254 00 0 00 400006'		JRST LOADRC	;IF DONE, GO CHECK ON CHECKSUM.

	400044'	255 00 0 00 000000	RELTBL:	JFCL	;REL BYTE=0: ABSOLUTE
	400045'	270 13 0 00 000005'		ADD A,$RELOC	;1:  NORMAL REL.
	400046'	274 13 0 00 000005'		SUB A,$RELOC	;2:  NEGATIVE REL.

	400047'	626 02 0 00 000200	RELSUB:	TRZN RELOC,200	;RELOCATION:  IS INDEX FLAG SET?
GRILNK	GRI-909 LINK EDITOR	MACRO 47(113) 16:15  8-MAR-73 PAGE 2-1
GLA	MAC	 7-NOV-72 17:51		MAIN ROUTINES

	400050'	634 15 0 00 000015		TDZA T1,T1	;NO, OR IN NOTHING.
	400051'	201 15 0 00 100000		MOVEI T1,100000	;YES, OR IN INDEX BIT.
	400052'	256 00 0 02 400044'		XCT ,RELTBL(RELOC)	;DO RELOCATION.
	400053'	405 13 0 00 177777		ANDI A,177777	;CUT RESULT TO PROPER SIZE.
	400054'	434 13 0 00 000015		IOR A,T1	;OR IN INDEX/NO-INDEX BIT.
	400055'	254 00 0 14 000000		JRST (T)	;RETURN.
GRILNK	GRI-909 LINK EDITOR	MACRO 47(113) 16:15  8-MAR-73 PAGE 3
GLA	MAC	 7-NOV-72 17:51		DICTIONARY PROCESSING

						SUBTTL DICTIONARY PROCESSING
					;GRI-909 RELOCATING LOADER, PAGE 3
					;DICTN:  PROCESS A DICTIONARY ENTRY.
					;ON ENTRY'S-- MULTIPLY DEFINED ENTRY'S ARE FLAGGED AND IGNORED
					;  NEW ENTRY'S ARE USED TO RESOLVE OUTSTANDING EXTERNS AND ARE
					;  STORED IN THE MASTER SYMBOL TABLE.
					;ON EXTERN'S-- IF A MATCHING ENTRY ALREADY EXISTS, THE EXTERN IS
					;  RESOLVED ON THE SPOT.  OTHERWISE IT IS PUT IN THE MASTER
					;  SYMBOL TABLE.

	400056'	260 17 0 00 400171'	DICTN:	PUSHJ P,GETRHD	;DICTIONARY BLOCK.  GET HEADER.
	400057'	254 00 0 00 400342'		JRST BADBLK
	400060'	260 17 0 00 400221'	DICTLP:	PUSHJ P,RDSYM	;GET NEXT SYMBOL ENTRY.
	400061'	254 00 0 00 400342'		JRST BADBLK
	400062'	603 07 0 00 020000		TLNE FLGS,QENT	;IS IT AN ENTRY?
	400063'	254 00 0 00 400107'		JRST ENTFND	;YES, GO PROCESS.
	400064'	602 07 0 00 030000	EXTFND:	TRNE FLGS,GRIPLS+GRIMIN	;IS EXTERN EITHER A PLUS OR MINUS REF?
	400065'	254 00 0 00 400070'		JRST NOTDGN	;NO, CANNOT BE DEGENERATE CASE.
	400066'	306 06 0 00 177777		CAIN VALUE,177777	;IS VALUE 177777?
	400067'	254 00 0 00 400101'		JRST COUNT	;YES, IGNORE EXTERN.
	400070'	200 13 0 00 000005	NOTDGN:	MOVE A,NAME	;NO, AN EXTERN.  LOOK IT UP IN THE MASTER
	400071'	260 17 0 00 000000*		PUSHJ P,$LKGLBL	;SYMBOL TABLE OF GLOBALS.
	400072'	254 00 0 00 400103'		JRST INWREF	;NOT PRESENT IN ANY FORM.  GO INSERT IT.
	400073'	200 01 0 13 000002		MOVE AC,SYMF(A)	;FOUND.  IS TABLE SYMBOL ALSO AN
	400074'	603 01 0 00 040000		TLNE AC,QEXT	;EXTERN REFERENCE?
	400075'	254 00 0 00 400103'		JRST INWREF	;YES, GO INSERT NEW REFERENCE.
	400076'	200 03 0 00 000013		MOVE ENT,A	;NO, ENTRY IN TABLE IS A TRUE ENTRY.
	400077'	201 04 0 00 000005		MOVEI EXT,NAME	;SYMBOL IN "NAME" IS AN EXTERN.
	400100'	260 17 0 00 400123'		PUSHJ P,RESOLV	;GP RESOLVE EXTERN REFERENCE.
	400101'	367 11 0 00 400060'	COUNT:	SOJG CNT,DICTLP	;DECREMENT BLOCK COUNT.  LOOP BACK IF NOT DONE.
	400102'	254 00 0 00 400006'		JRST LOADRC	;IF DONE, GO CHECKSUM.

	400103'	201 13 0 00 000005	INWREF:	MOVEI A,NAME	;INSERT CURRENT SYMBOL INTO
	400104'	260 17 0 00 000000*		PUSHJ P,$STSYM	;MASTER SYMBOL TABLE.
	400105'	254 00 0 00 400350'		JRST NOCORE	;ERROR
	400106'	254 00 0 00 400101'		JRST COUNT	;GO DECREMENT BLOCK COUNT.

	400107'	200 13 0 00 000005	ENTFND:	MOVE A,NAME	;SYMBOL IS AN ENTRY.  LOOK IT UP.
	400110'	260 17 0 00 400071*		PUSHJ P,$LKGLBL	;IF NOT FOUND, GO INSERT.
	400111'	254 00 0 00 400103'		JRST INWREF
	400112'	200 01 0 13 000002		MOVE AC,SYMF(A)	;FOUND, GET FLAGS FROM SYMBOL TABLE.
	400113'	603 01 0 00 020000		TLNE AC,QENT	;ALSO AN ENTRY>
	400114'	254 00 0 00 400313'		JRST MULDEF	;YES, MULTIPLY DEFINED.
	400115'	201 03 0 00 000005		MOVEI ENT,NAME	;NO.  EXTERN IS IN TABLE, ENTRY IS IN
	400116'	200 04 0 00 000013		MOVE EXT,A	;CURRENT SYMBOL.
	400117'	260 17 0 00 400123'		PUSHJ P,RESOLV	;GO RESOLVE.
	400120'	200 13 0 00 000004		MOVE A,EXT	;PURGE THE EXTERN REFERENCE FROM
	400121'	260 17 0 00 000000*		PUSHJ P,$PURGE	;THE MASTER SYMBOL TABLE.
	400122'	254 00 0 00 400107'		JRST ENTFND	;TRY AGAIN.
GRILNK	GRI-909 LINK EDITOR	MACRO 47(113) 16:15  8-MAR-73 PAGE 4
GLA	MAC	 7-NOV-72 17:51		DICTIONARY PROCESSING

					;GRI-909 RELOCATING LOADER, PAGE 4
					;RESOLVE AN ENTRY-EXTERN PAIR.
					;ENT	POINTS TO ENTRY SYMBOL BLOCK.
					;EXT	POINTS TO EXTERN SYMBOL BLOCK.

	400123'	200 01 0 04 000001	RESOLV:	MOVE AC,SYMV(EXT)	;USE VALUE OF EXTERN (+1 FOR
	400124'	271 01 0 00 000001		ADDI AC,1	;AUTO-INDEXING)
	400125'	202 01 0 00 000004'		MOVEM AC,$ORIGN	;AS POINTER TO CORE.
	400126'	260 17 0 00 000000*		PUSHJ P,$GTWRD	;GET WORD FROM CORE.
	400127'	200 01 0 04 000002		MOVE AC,SYMF(EXT)	;GET FLAGS OF EXTERN REF.
	400130'	622 01 0 00 020000		TRZE AC,GRIPLS	;PLUS REFERENCE?
	400131'	254 00 0 00 400136'		JRST ADDENT	;YES.
	400132'	626 01 0 00 010000		TRZN AC,GRIMIN	;MINUS REFERENCE?
	400133'	254 00 0 00 400143'		JRST NRMEXT	;NO, MUST BE NORMAL EXTERN.
	400134'	274 13 0 03 000001		SUB A,SYMV(ENT)	;SUBTRACT OFF VALUE OF
	400135'	254 00 0 00 400137'		JRST .+2	;ENTRY REFERENCE AND SKIP.
	400136'	270 13 0 03 000001	ADDENT:	ADD A,SYMV(ENT)	;ADD REF... ADD ON VALUE OF REFERENCE.
	400137'	405 13 0 00 177777		ANDI A,177777	;CUT RESULT TO 16 BITS.
	400140'	260 17 0 00 400037*		PUSHJ P,$PTWRD	;STORE RESULT BACK.
	400141'	254 00 0 00 400333'		JRST BADORG	;ERROR, DIE.
	400142'	263 17 0 00 000000	CPOPJ:	POPJ P,	;EXIT.

	400143'	201 01 0 13 000001	NRMEXT:	MOVEI AC,1(A)	;A CONTAINS WORD FROM CORE = NEXT CHAIN POINTER.
	400144'	200 13 0 03 000001		MOVE A,SYMV(ENT)	;REPLACE CORE WORD WITH VALUE
	400145'	260 17 0 00 400140*		PUSHJ P,$PTWRD	;OF ENTRY (IE, THE EXTERN'S DEFINITION).
	400146'	254 00 0 00 400333'		JRST BADORG
	400147'	306 01 0 00 200000		CAIN AC,177777+1	;END OF CHAIN?
	400150'	263 17 0 00 000000		POPJ P,	;YES, PUNT.
	400151'	202 01 0 00 000004'		MOVEM AC,$ORIGN	;NO, CHAIN POINTER IS NEW ORIGIN.
	400152'	260 17 0 00 400126*		PUSHJ P,$GTWRD	;GET NEXT LINK IN CHAIN.
	400153'	254 00 0 00 400143'		JRST NRMEXT	;ONWARD!
GRILNK	GRI-909 LINK EDITOR	MACRO 47(113) 16:15  8-MAR-73 PAGE 5
GLA	MAC	 7-NOV-72 17:51		DICTIONARY PROCESSING

					;GRI-909 RELOCATING LOADER, PAGE 5
					;READ ROUTINES:
					;GET3:  GET REL. FLAG + DATA
					;GETRHD:  GET REL. HEADER
					;RDSYM:  READ SYMBOL AND CONVERT TO MIMIC FORMAT

	400154'	260 17 0 00 400010*	GET3:	PUSHJ P,$RDWRD	;GET 1ST BYTE.
	400155'	263 17 0 00 000000		POPJ P,
	400156'	270 10 0 00 000013		ADD CSUM,ARG	;TREAT AS WHOLE WORD FOR CHECKSUM PURPOSES.
	400157'	200 02 0 00 000013		MOVE RELOC,A
	400160'	260 17 0 00 400154*	RDWRD:	PUSHJ P,$RDWRD	;GET 2ND BYTE.
	400161'	263 17 0 00 000000		POPJ P,
	400162'	200 12 0 00 000013		MOVE ACX,A	;SAVE IT.
	400163'	260 17 0 00 400160*		PUSHJ P,$RDWRD	;GET 3RD BYTE.
	400164'	263 17 0 00 000000		POPJ P,
	400165'	137 12 0 00 400532'		DPB ACX,[POINT 8,A,27]	;FORM COMPLETE WORD FROM BYTE 2 & 3
	400166'	270 10 0 00 000013		ADD CSUM,A	;AND ADD RESULT INTO CHECKSUM.
	400167'	350 00 0 17 000000	CPOPJ1:	AOS ,(P)	;SKIP RETURN.
	400170'	263 17 0 00 000000		POPJ P,

	400171'	260 17 0 00 400160'	GETRHD:	PUSHJ P,RDWRD	;GET RELOCATABLE HEADER.  1ST WORD
	400172'	263 17 0 00 000000		POPJ P,
	400173'	200 10 0 00 000013		MOVE CSUM,A	;IS CHECKSUM.
	400174'	260 17 0 00 400160'		PUSHJ P,RDWRD	;2ND WORD IS BLOCK COUNT
	400175'	263 17 0 00 000000		POPJ P,
	400176'	210 11 0 00 000013		MOVN CNT,A	;WHICH IS NEGATIVE AND MUST BE MADE POSITIVE.
	400177'	405 11 0 00 177777		ANDI CNT,177777
	400200'	254 00 0 00 400167'		JRST CPOPJ1	;EXIT OK.

	400201'	260 17 0 00 400160'	ABSBLK:	PUSHJ P,RDWRD	;ABSOLUTE BLOCK FORMAT IS DIFFERENT.
	400202'	254 00 0 00 400342'		JRST BADBLK
	400203'	210 10 0 00 000013		MOVN CSUM,A	;FIRST WORD IS CHECKSUM, POSITIVE INSTEAD
	400204'	260 17 0 00 400160'		PUSHJ P,RDWRD	;OF NEGATIVE.  2ND WORD IN ORIGIN.
	400205'	254 00 0 00 400342'		JRST BADBLK
	400206'	202 13 0 00 000004'		MOVEM A,$ORIGN
	400207'	260 17 0 00 400160'		PUSHJ P,RDWRD	;NEXT WORD IS BLOCK COUNT, POSITIVE INSTEAD
	400210'	254 00 0 00 400342'		JRST BADBLK
	400211'	200 11 0 00 000013		MOVE CNT,A	;OF NEGATIVE!
	400212'	260 17 0 00 400160'	ABSLP:	PUSHJ P,RDWRD	;GET DATA WORD.
	400213'	254 00 0 00 400342'		JRST BADBLK
	400214'	260 17 0 00 400145*		PUSHJ P,$PTWRD	;STORE IT IN CORE.
	400215'	254 00 0 00 400333'		JRST BADORG
	400216'	350 00 0 00 000004'		AOS ,$ORIGN	;INCREMENT ORIGIN.
	400217'	367 11 0 00 400212'		SOJG CNT,ABSLP	;DECREMENT BLOCK COUNT.  IF NOT ZERO, LOOP.
	400220'	254 00 0 00 400006'		JRST LOADRC	;GO CHECK ON CHECKSUM.
GRILNK	GRI-909 LINK EDITOR	MACRO 47(113) 16:15  8-MAR-73 PAGE 6
GLA	MAC	 7-NOV-72 17:51		DICTIONARY PROCESSING

					;GRI-909 RELOCATING LOADER, PAGE 6
					;
	400221'	260 17 0 00 400160'	RDSYM:	PUSHJ P,RDWRD	;READ SYMBOL ENTRY.  GET FIRST WORD
	400222'	263 17 0 00 000000		POPJ P,
	400223'	200 01 0 00 000013		MOVE AC,A	;AND SAVE.
	400224'	260 17 0 00 400160'		PUSHJ P,RDWRD	;GET 2ND WORD.
	400225'	263 17 0 00 000000		POPJ P,
	400226'	200 07 0 00 000013		MOVE FLGS,A	;AND SAVE AGAIN.
	400227'	306 01 0 00 177777		CAIN AC,177777	;IS "SYMBOL NAME" -1?
	400230'	254 00 0 00 400257'		JRST INDXBL	;YES, INDEXED EXTERNAL EXPRESSION, GO PROCESS.
	400231'	221 01 0 00 003100		IMULI AC,50*50	;1ST AND 2ND WORD ARE RADIX 50 SYMBOL NAMES?
	400232'	405 13 0 00 003777		ANDI A,003777	;MULTIPLY HIGH ORDER 3 DIGITS BY 2500
	400233'	270 01 0 00 000013		ADD AC,A	;AND ADD IN LOWER HALF.
	400234'	260 17 0 00 400265'		PUSHJ P,RDX50C	;CONVERT FROM RADIX 50 TO SIXBIT.
	400235'	260 17 0 00 400160'		PUSHJ P,RDWRD	;GET SYMBOL VALUE.
	400236'	263 17 0 00 000000		POPJ P,
	400237'	200 06 0 00 000013		MOVE VALUE,A	;SAVE IT.

	400240'	405 07 0 00 170000		ANDI FLGS,170000	;CUT OUT EXTRANEOUS FLAG BITS.
	400241'	626 07 0 00 100000		TRZN FLGS,GRIENT	;IS SYMBOL AN ENTRY POINT?
	400242'	254 00 0 00 400263'		JRST EXTFXX	;NO, EXTERN, GO FIX.
	400243'	661 07 0 00 020000		TLO FLGS,QENT	;YES, SET MIMIC ENTRY FLAG.
	400244'	622 07 0 00 020000		TRZE FLGS,GRIPLS	;IS POSITIVE REF BIT SET?
	400245'	254 00 0 00 400254'		JRST NEGENT	;YES, THEN NEGATIVELY RELOCATABLE (UGH).
	400246'	626 07 0 00 040000	CHKREL:	TRZN FLGS,GRIREL	;NO. IS RELOCATION BIT SET?
	400247'	254 00 0 00 400253'		JRST .+4	;NO.
	400250'	270 06 0 00 000005'		ADD VALUE,$RELOC	;YES, ADD ON RELOCATION CONSTANT.
	400251'	405 06 0 00 077777		ANDI VALUE,77777	;CUT RESULT TO 15 BITS.
	400252'	661 07 0 00 001000	ROUND:	TLO FLGS,QREL	;SET MIMIC RELOCATION FLAG.
	400253'	254 00 0 00 400167'		JRST CPOPJ1	;TAKE SKIP RETURN.

	400254'	274 06 0 00 000005'	NEGENT:	SUB VALUE,$RELOC	;NEGATIVE ENTRY POINT.  SUBTRACT
	400255'	405 06 0 00 177777		ANDI VALUE,177777	;CUT RESULT TO 16 BITS.
	400256'	254 00 0 00 400252'		JRST ROUND	;RELOCATION CONSTANT FROM VALUE.

	400257'	200 05 0 00 400421'	INDXBL:	MOVE NAME,INDXNM	;INDEXED EXTERNAL EXPRESSION.
	400260'	260 17 0 00 400160'		PUSHJ P,RDWRD	;CHANGE NAME TO [INDX].
	400261'	263 17 0 00 000000		POPJ P,	;READ THRID WORD (VALUE).
	400262'	334 06 0 00 000013		SKIPA VALUE,A	;SAVE VALUE.
	400263'	661 07 0 00 040000	EXTFXX:	TLO FLGS,QEXT	;EXTERN REF... SET MIMIC EXTERN FLAG.
	400264'	254 00 0 00 400246'		JRST CHKREL	;GO CHECK FOR RELOCATION.

	400265'	400 05 0 00 000000	RDX50C:	CLEAR NAME,	;CONVERT RADIX 50 SYMBOL IN AC.
	400266'	231 01 0 00 000050	RDX50L:	IDIVI AC,50	;DIVIDE SYMBOL BY 50 TO GET A DIGIT.
	400267'	261 17 0 00 000002		PUSH P,AC+1	;PUSH REMAINDER.
	400270'	332 00 0 00 000001		SKIPE AC	;QUOTEINT ZERO?
	400271'	260 17 0 00 400266'		PUSHJ P,RDX50L	;NO, RECUR.
	400272'	262 17 0 00 000004	RDXDON:	POP P,NAME-1	;GET DIGIT.
	400273'	322 04 0 00 400303'		JUMPE NAME-1,INCRAD	;IGNORE ZERO CHARACTERS.
	400274'	301 04 0 00 000015		CAIL NAME-1,15	;IN RADIX 50, 15-47 IS @-Z.
	400275'	254 00 0 00 400301'		JRST ADD15	;GO ADJUST ALPHANUMERIC
	400276'	305 04 0 00 000003		CAIGE NAME-1,3	;IN RADIX 50, 3-14 ARE 0-9.
	400277'	271 04 0 00 777766		ADDI NAME-1,-<-3+20>+3	;[$,%]: 3+[1,2]= 04,05
GRILNK	GRI-909 LINK EDITOR	MACRO 47(113) 16:15  8-MAR-73 PAGE 6-1
GLA	MAC	 7-NOV-72 17:51		DICTIONARY PROCESSING

	400300'	271 04 0 00 777772	ADDNM:	ADDI NAME-1,-<-15+40>-3+20	;[0,9]: 15+[3,14]= 20-31
	400301'	271 04 0 00 000023	ADD15:	ADDI NAME-1,-15+40	;[@,Z]: 23+[15,47]= 40-72
	400302'	137 04 0 01 400305'		DPB NAME-1,PUTTBL(AC)	;PUT DIGIT IN PLACE.
	400303'	271 01 0 00 000001	INCRAD:	ADDI AC,1	;ADVANCE TO NEXT DIGIT POSITION.
	400304'	263 17 0 00 000000		POPJ P,	;RETURN RECURSIVELY.

	400305'	36 06 0 00 000005	PUTTBL:	POINT 6,NAME,5	;D1
	400306'	30 06 0 00 000005		POINT 6,NAME,11	;DIGIT 2
	400307'	22 06 0 00 000005		POINT 6,NAME,17	;DIGIT 3
	400310'	14 06 0 00 000005		POINT 6,NAME,23	;DIGIT 4
	400311'	06 06 0 00 000005		POINT 6,NAME,29	;DIGIT 5
	400312'	00 06 0 00 000005		POINT 6,NAME,35	;DIGIT 6
GRILNK	GRI-909 LINK EDITOR	MACRO 47(113) 16:15  8-MAR-73 PAGE 7
GLA	MAC	 7-NOV-72 17:51		DICTIONARY PROCESSING

					;GRI-909 RELOCATING LOADER, PAGE 7
					;ERROR PROCESSOR.

						DEFINE ER(B,C)
					<	MOVEI A,.+3
						PUSHJ P,PRERR
						JRST C
						ASCIZ \B\>

	400313'	201 13 0 00 400316'	MULDEF:	ER <?MULTIPLY DEFINED GLOBAL 1>,COUNT^	MOVEI A,.+3
	400314'	260 17 0 00 400357'		PUSHJ P,PRERR
	400315'	254 00 0 00 400101'		JRST COUNT
	400316'	077 115 125 114 124		ASCIZ \?MULTIPLY DEFINED GLOBAL 1\^
	400317'	111 120 114 131 040
	400320'	104 105 106 111 116
	400321'	105 104 040 107 114
	400322'	117 102 101 114 040
	400323'	061 000 000 000 000
	400324'	201 13 0 00 400327'	CSUMER:	ER <?CHECKSUM ERROR>,$LOADR^	MOVEI A,.+3
	400325'	260 17 0 00 400357'		PUSHJ P,PRERR
	400326'	254 00 0 00 400010'		JRST $LOADR
	400327'	077 103 110 105 103		ASCIZ \?CHECKSUM ERROR\^
	400330'	113 123 125 115 040
	400331'	105 122 122 117 122
	400332'	000 000 000 000 000
	400333'	201 13 0 00 400336'	BADORG:	ER <?ILLEGAL ORIGIN 2>,CPOPJ^	MOVEI A,.+3
	400334'	260 17 0 00 400357'		PUSHJ P,PRERR
	400335'	254 00 0 00 400142'		JRST CPOPJ
	400336'	077 111 114 114 105		ASCIZ \?ILLEGAL ORIGIN 2\^
	400337'	107 101 114 040 117
	400340'	122 111 107 111 116
	400341'	040 062 000 000 000
	400342'	201 13 0 00 400345'	BADBLK:	ER <?BAD BLOCK>,LVLOAD^	MOVEI A,.+3
	400343'	260 17 0 00 400357'		PUSHJ P,PRERR
	400344'	254 00 0 00 400000'		JRST LVLOAD
	400345'	077 102 101 104 040		ASCIZ \?BAD BLOCK\^
	400346'	102 114 117 103 113
	400347'	000 000 000 000 000
	400350'	201 13 0 00 400353'	NOCORE:	ER <?INSUFFICIENT CORE>,CPOPJ^	MOVEI A,.+3
	400351'	260 17 0 00 400357'		PUSHJ P,PRERR
	400352'	254 00 0 00 400142'		JRST CPOPJ
	400353'	077 111 116 123 125		ASCIZ \?INSUFFICIENT CORE\^
	400354'	106 106 111 103 111
	400355'	105 116 124 040 103
	400356'	117 122 105 000 000

	400357'	550 01 0 00 000013	PRERR:	HRRZ AC,A	;MAKE A BYTE POINTER OUT OF THE
	400360'	505 01 0 00 440700		HRLI AC,(POINT 7,)	;ARGUMENT.
	400361'	260 17 0 00 000000*		PUSHJ P,$PRFIL	;PRINT IDENTIFICATION OF OFFENDING FILE.
	400362'	134 13 0 00 000001	ERRNXT:	ILDB A,AC	;GET NEXT CHARACTER OF ERROR MESSAGE.
	400363'	322 13 0 00 400372'		JUMPE A,ENDMSG	;ON ZERO, END
	400364'	306 13 0 00 000061		CAIN A,"1"	;1 STANDS FOR CURRENT SYMBOL.
	400365'	254 00 0 00 400400'		JRST PRSYMB
GRILNK	GRI-909 LINK EDITOR	MACRO 47(113) 16:15  8-MAR-73 PAGE 7-1
GLA	MAC	 7-NOV-72 17:51		DICTIONARY PROCESSING

	400366'	306 13 0 00 000062		CAIN A,"2"	;2 STANDS FOR CURRENT ORIGIN.
	400367'	254 00 0 00 400375'		JRST PRORGN
	400370'	051 01 0 00 000013		OUTCHR A	;OTHERWISE, PRINT CHARACTER.
	400371'	254 00 0 00 400362'		JRST ERRNXT

	400372'	051 03 0 00 400374'	ENDMSG:	OUTSTR CRLF	;END OF ERROR, TYPE CR-LF.
	400373'	263 17 0 00 000000		POPJ P,	;EXIT.
	400374'				CRLF:	ASCIZ /
	400374'	015 012 000 000 000	/

	400375'	200 13 0 00 000004'	PRORGN:	MOVE A,$ORIGN	;PRINT ORIGIN AS 16 BIT INTEGER
	400376'	260 17 0 00 000000*		PUSHJ P,$PRVAL
	400377'	254 00 0 00 400362'		JRST ERRNXT

	400400'	201 13 0 00 000005	PRSYMB:	MOVEI A,NAME	;PRINT CURRENT SYMBOL
	400401'	260 17 0 00 000000*		PUSHJ P,$PRSYM
	400402'	254 00 0 00 400362'		JRST ERRNXT
GRILNK	GRI-909 LINK EDITOR	MACRO 47(113) 16:15  8-MAR-73 PAGE 8
GLA	MAC	 7-NOV-72 17:51		DICTIONARY PROCESSING

					;GRI-909 RELOCATING LOADER, PAGE 8
					;BINARY PUNCH SUBROUTINE.
					;
	400403'	402 00 0 00 000000'	$ELOAD:	SETZM ,SYMPTR	;FIRST, RESOLVE INDEXED EXPRESSIONS.
	400404'	260 17 0 00 400472'	ILOOP:	PUSHJ P,NXTSYM	;GET FIRST(NEXT) SYMBOL FFROM SYMBOL TABLE.
	400405'	254 00 0 00 400422'		JRST ALLDN	;NONE LEFT? DONE.
	400406'	200 14 0 00 400421'		MOVE T,INDXNM	;IS SYMBOL AN INDEX BLOCK?
	400407'	312 14 0 13 000000		CAME T,SYMN(A)
	400410'	254 00 0 00 400404'		JRST ILOOP	;NO, ON TO NEXT SYMBOL.
	400411'	350 14 0 13 000001		AOS T,SYMV(A)	;YES, SYMBOL VALUE IS POINTER(-1) TO CORE.
	400412'	202 14 0 00 000004'		MOVEM T,$ORIGN	;SET ORIGIN FOR CORE PROBE.
	400413'	260 17 0 00 400121*		PUSHJ P,$PURGE	;PURGE THE INDEX BLOCK FROM THE SYMBOL TABLE.
	400414'	260 17 0 00 400152*		PUSHJ P,$GTWRD	;GET WORD FROM CORE.
	400415'	435 13 0 00 100000		IORI A,100000	;SET INDEX BIT.
	400416'	260 17 0 00 400214*		PUSHJ P,$PTWRD	;PUT IT BACK.
	400417'	255 00 0 00 000000		JFCL	;IGNORE ERRORS.
	400420'	254 00 0 00 400403'		JRST $ELOAD	;PURGE CLOBBERS POINTERS, START OVER.

	400421'	73 51 56 44 70 75	INDXNM:	SIXBIT /[INDX]/

	400422'	607 00 0 00 400000	ALLDN:	TLNN F,QOBFIL	;IS THERE AN OUTPUT BINARY FILE?
	400423'	263 17 0 00 000000		POPJ P,	;NO, EXIT.
	400424'	260 17 0 00 400465'		PUSHJ P,LEADER	;PUNCH INITIAL ZEROES.
						CPY $LO,$ORIGN	^;START PUNCHING FROM LOWEST LOADED ADDR.
	400425'	200 14 0 00 000000*		MOVE T,$LO
	400426'	202 14 0 00 000004'		MOVEM T,$ORIGN
	400427'				PUNBLP:	CPY $ORIGN,PNBORG	^;SET UP BUFFER ORIGIN.
	400427'	200 14 0 00 000004'		MOVE T,$ORIGN
	400430'	202 14 0 00 000010'		MOVEM T,PNBORG
	400431'	202 14 0 00 000007'		MOVEM T,PNBSUM	;ADD ORIGIN INTO CHECKSUM.
	400432'	205 11 0 00 777700		MOVSI CNT,-PNBLNT	;SET UP MAXIMUM COUNT.
	400433'	313 14 0 00 400032*	PNBLP:	CAMLE T,$HI	;IS CURRENT ORIGIN < MAXIMUM?
	400434'	254 00 0 00 400442'		JRST PUNBLK	;NO, DONE PUNCHING.
	400435'	260 17 0 00 400414*		PUSHJ P,$GTWRD	;GET WORD FROM SIMULATED CORE.
	400436'	272 13 0 00 000007'		ADDM A,PNBSUM	;ADD WORD INTO CHECKSUM.
	400437'	202 13 0 11 000012'		MOVEM A,PUNBUF(CNT)	;STORE WORD IN PUNCH BUFFER.
	400440'	350 14 0 00 000004'		AOS T,$ORIGN	;INCREMENT ORIGIN.
	400441'	253 11 0 00 400433'		AOBJN CNT,PNBLP	;DECREMENT COUNT. IF NOT ZERO, LOOP.

	400442'	550 11 0 00 000011	PUNBLK:	HRRZ CNT,CNT	;REDUCE COUNT TO 18 BITS, POSITIVE.
	400443'	272 11 0 00 000007'		ADDM CNT,PNBSUM	;ADD COUNT INTO CHECKSUM.
	400444'	202 11 0 00 000011'		MOVEM CNT,PNBCNT	;STORE BLOCK COUNT.
	400445'	271 11 0 00 000004		ADDI CNT,4	;DATA BLOCK IS 4 WORDS LONGER.
	400446'	201 02 0 00 000006'		MOVEI AC1,PNBST	;START PUNCHING AT BLOCK START.
	400447'	505 02 0 00 201000	PUNLP:	HRLI AC1,(POINT 8,,19)	;CONVERT WORD PTR TO BYTE PTR.
	400450'	134 13 0 00 000002		ILDB A,AC1	;GET FIRST BYTE.
	400451'	260 17 0 00 000000*		PUSHJ P,$WRWRD	;PUNCH IT.
	400452'	134 13 0 00 000002		ILDB A,AC1	;GET SECOND BYTE.
	400453'	260 17 0 00 400451*		PUSHJ P,$WRWRD	;PUNCH IT.
	400454'	271 02 0 00 000001		ADDI AC1,1	;ADVANCE TO NEXT WORD OF PUNCH BLOCK.
	400455'	367 11 0 00 400447'		SOJG CNT,PUNLP	;DECREMENT COUNT.  IF NOT ZERO, LOOP.
	400456'	260 17 0 00 400465'		PUSHJ P,LEADER	;PUNCH INTER-BLOCK LEADER.
	400457'	200 14 0 00 000004'		MOVE T,$ORIGN	;HAVE WE REACHED END OF CORE TO BE PUNCHED?
GRILNK	GRI-909 LINK EDITOR	MACRO 47(113) 16:15  8-MAR-73 PAGE 8-1
GLA	MAC	 7-NOV-72 17:51		DICTIONARY PROCESSING

	400460'	317 14 0 00 400433*		CAMG T,$HI
	400461'	254 00 0 00 400427'		JRST PUNBLP	;NO, GO PUNCH MORE.
	400462'	201 13 0 00 000002		MOVEI A,02	;YES, PUNCH "02" AS END OF TAPE
	400463'	260 17 0 00 400453*		PUSHJ P,$WRWRD
	400464'	263 17 0 00 000000		POPJ P,	;EXIT.

	400465'	201 11 0 00 000023	LEADER:	MOVEI CNT,^D19	;LEADER... PUNCH 19 FRAMES OF ZERO.
	400466'	400 13 0 00 000000		CLEAR A,
	400467'	260 17 0 00 400463*		PUSHJ P,$WRWRD
	400470'	367 11 0 00 400466'		SOJG CNT,.-2
	400471'	263 17 0 00 000000		POPJ P,
GRILNK	GRI-909 LINK EDITOR	MACRO 47(113) 16:15  8-MAR-73 PAGE 9
GLA	MAC	 7-NOV-72 17:51		DICTIONARY PROCESSING

					;GRI-909 RELOCATING LOADER, PAGE 9
					;SYMBOL TABLE SEARCH ROUTINES

						EXTERN JOBFF,SYMBEG

	400472'	336 13 0 00 000000'	NXTSYM:	SKIPN A,SYMPTR	;IF SYMPTR=0, RETURN ADDRESS OF FIRST SYMBOL.
	400473'	334 13 0 00 000000*		SKIPA A,SYMBEG	;WHICH IS AT SYMBEG.
	400474'	271 13 0 00 000003		ADDI A,SYMLNT	;OTHERWISE RETURN ADDRESS OF NEXT.
	400475'	311 13 0 00 000000*		CAML A,JOBFF	;WITHIN DEFINED AREA?
	400476'	263 17 0 00 000000		POPJ P,	;NO, FAIL RETURN, NONE LEFT.
	400477'	202 13 0 00 000000'		MOVEM A,SYMPTR	;YES, STORE IN SYMPTR
	400500'	254 00 0 00 400167'		JRST CPOPJ1	;AND TAKE SKIP RETURN.

						EXTERN $RDNUM,SYMBEG,JOBFF

	400501'	260 17 0 00 000000*	FSW:	PUSHJ P,$RDNUM	;/F:XXXXX--- READ NUMBER.
	400502'	202 13 0 00 000002'		MOVEM A,DUMENT+SYMV	;SAVE AS VALUE OF DUMMY ENTRY.
	400503'	402 00 0 00 000000'	FOVER:	SETZM ,SYMPTR	;START AT BEGINNING OF SYMBOL TABLE.
	400504'	260 17 0 00 400472'	FLOOP:	PUSHJ P,NXTSYM	;GET NEXT SYMBOL.
	400505'	263 17 0 00 000000		POPJ P,	;NONE LEFT.
	400506'	200 01 0 13 000002		MOVE AC,SYMF(A)	;GET ITS FLAGS.
	400507'	200 14 0 13 000000		MOVE T,SYMN(A)	;GET ITS NAME.
	400510'	312 14 0 00 400421'		CAME T,INDXNM	;NOT AN INDEX BLOCK AND AN
	400511'	607 01 0 00 040000		TLNN AC,QEXT	;UNRESOLVED EXTERN?
	400512'	254 00 0 00 400504'		JRST FLOOP	;NO, ON TO NEXT.
	400513'	201 03 0 00 000001'		MOVEI ENT,DUMENT	;YES, RESOLVE IT AGAINST THE
	400514'	200 04 0 00 000013		MOVE EXT,A	;DUMMY ENTRY.
	400515'	260 17 0 00 400123'		PUSHJ P,RESOLV
	400516'	200 13 0 00 000004		MOVE A,EXT	;PURGE THE EXTERN REFERENCE.
	400517'	260 17 0 00 400413*		PUSHJ P,$PURGE
	400520'	254 00 0 00 400503'		JRST FOVER	;BECAUSE POINTERS ARE RAPED, START SEARCH OVER.
GRILNK	GRI-909 LINK EDITOR	MACRO 47(113) 16:15  8-MAR-73 PAGE 10
GLA	MAC	 7-NOV-72 17:51		DICTIONARY PROCESSING

					;GRI-909 RELOCATING LOADER, PAGE 10
					;LOW SEGMENT
						SUBTTL VARIABLES
						INTERN IPCODE
	400521'	000000	000010		$RADIX:	^D8	;RADIX 8, BIT WIDTH 16
	400522'	000000	000020		$BITS:	^D16
	400523'	000000	000474		IPCODE:	^D316		;PROGRAM CODE, TYMSHARE
	400524'	42 51 56 00 00 00	$DFBIN:	SIXBIT /BIN/	;BINARY FILE EXTENSION
	400525'	47 62 54 00 00 00	$DFINF:	SIXBIT /GRL/
	400526'	060000	000000		$EMASK:	XWD QENT+QEXT,0
	400527'	106 072 000 000 000	$USRSW:	ASCIZ /F:/
	400530'	260 17 0 00 400501'		PUSHJ P,FSW
	400531'	000 00 0 00 000000		Z	;USER SWITCH TABLE.
	400532'					LIT
	400532'	10 10 0 00 000013
	000000'					RELOC 0
	000000'				SYMPTR:	BLOCK 1
	000001'				DUMENT:	BLOCK 3
	000004'				$ORIGN:	BLOCK 1	;ORIGIN
	000005'				$RELOC:	BLOCK 1	;RELOCATION CONSTANT

	000006'	000000	000001		PNBST:	1	;START OF ABSOLUTE PUNCH BUFFER.

	000007'				PNBSUM:	BLOCK 1	;BLOCK SUM
	000010'				PNBORG:	BLOCK 1	;ORIGIN
	000011'				PNBCNT:	BLOCK 1	;COUNT
	000012'				PUNBUF:	BLOCK 100	;BUFFER PROPER
			000100			PNBLNT=.-PUNBUF
						END

NO ERRORS DETECTED

HI-SEG. BREAK IS 400533
PROGRAM BREAK IS 000112

3K CORE USED
GRILNK	GRI-909 LINK EDITOR	MACRO 47(113) 16:15  8-MAR-73 PAGE 11
GLA	MAC	 7-NOV-72 17:51		SYMBOL TABLE

A		000013	SPD	ILOOP		400404'		QREL		001000		$USRSW		400527'	INT
ABSBLK		400201'		INCRAD		400303'		QSMO		100000		$WRWRD		400467'	EXT
ABSLP		400212'		INDXBL		400257'		QSMRQ		040000
AC		000001		INDXNM		400421'		QSYM		200000
AC1		000002		INWREF		400103'		QTITLE		000002
AC2		000003		IPCODE		400523'	INT	QUNV		000200
AC3		000004		ISC		000000	SPD	RDSYM		400221'
ACX		000012		JOBFF		400475'	EXT	RDWRD		400160'
ADD15		400301'		LEADER		400465'		RDX50C		400265'
ADDENT		400136'		LOADRC		400006'		RDX50L		400266'
ADDNM		400300'		LVLOAD		400000'		RDXDON		400272'
ADR		000000	SPD	MAXCOD		000005		RELBLK		400023'
ALLDN		400422'		MULDEF		400313'		RELBLP		400034'
ARG		000013		NAME		000005		RELOC		000002	SPD
BADBLK		400342'		NEGENT		400254'		RELOCT	265600	400047'
BADORG		400333'		NOCORE		400350'		RELSUB		400047'
CHKCNT		400042'		NOTDGN		400070'		RELTBL		400044'
CHKREL		400246'		NRMEXT		400143'		RESOLV		400123'
CNT		000011		NXTSYM		400472'		ROUND		400252'
CODES		400015'		ONLINE		000000	SPD	SYMBEG		400473'	EXT
COUNT		400101'		OUTCHR	051040	000000		SYMF		000002
CPOPJ		400142'		OUTSTR	051140	000000		SYMLNT		000003
CPOPJ1		400167'		P		000017		SYMN		000000
CRLF		400374'		PNBCNT		000011'		SYMPTR		000000'
CSUM		000010		PNBLNT		000100		SYMV		000001
CSUMER		400324'		PNBLP		400433'		T		000014
DFTORG		000200		PNBORG		000010'		T1		000015
DICTLP		400060'		PNBST		000006'		TIMLTD		000000	SPD
DICTN		400056'		PNBSUM		000007'		TYMSHR		000000	SPD
DIGITL		000000	SPD	PRERR		400357'		VALUE		000006
DTALIN		000000	SPD	PRORGN		400375'		$BITS		400522'	INT
DUMENT		000001'		PRSYMB		400400'		$DFBIN		400524'	INT
ENDMSG		400372'		PUNBLK		400442'		$DFINF		400525'	INT
ENT		000003	SPD	PUNBLP		400427'		$ELOAD		400403'	ENT
ENTFND		400107'		PUNBUF		000012'		$EMASK		400526'	INT
ERRNXT		400362'		PUNLP		400447'		$GTWRD		400435'	EXT
EXT		000004	SPD	PUTTBL		400305'		$HI		400460'	EXT
EXTFND		400064'		QCCL		000010		$INITU		400003'	ENT
EXTFXX		400263'		QCCLC		000004		$LKGLB		400110'	EXT
F		000000		QCCLU		000001		$LKSYM		000000	EXT
FDATA		000000	SPD	QDIR		200000		$LO		400425'	EXT
FLGS		000007		QENT		020000		$LOADR		400010'	ENT
FLOOP		400504'		QEOF		000002		$ORIGN		000004'	INT
FOVER		400503'		QEQV		002000		$PRFIL		400361'	EXT
FSW		400501'		QEXT		040000		$PRSYM		400401'	EXT
GET3		400154'		QINS		400000		$PRVAL		400376'	EXT
GETRHD		400171'		QINT		010000		$PTWRD		400416'	EXT
GRIENT		100000		QLBL		000100		$PURGE		400517'	EXT
GRIMIN		010000		QLIT		100000		$RADIX		400521'	INT
GRIPLS		020000		QLOCAL		010000		$RDNUM		400501'	EXT
GRIREL		040000		QMAC		000001		$RDWRD		400163'	EXT
				QMAP		020000		$RELOC		000005'	INT
				QOBFIL		400000		$STSYM		400104'	EXT
s@J³